:020000040008F2
:10000000682A00206154080045130800EF440800E6
:1000100047130800491308004B13080000000000B4
:100020000000000000000000000000004D13080068
:100030004F1308000000000051130800234508007A
:1000400053130800551308005713080059130800EC
:100050005B1308005D1308005F13080061130800BC
:10006000692B0800631308005F450800B3450800CA
:1000700065130800872B0800C71E0800F11E080042
:1000800067130800691308005B3508006B1308004C
:100090006D1308006F13080071130800E54C080089
:1000A0007313080075130800AB4B080077130800A2
:0C00B000791308007B13080043130800BC
:1000BC0010B582B00024DFF8E00ADFF8E01A08601F
:1000CC00DFF8D40ADFF8D81A0860DFF8CC0ADFF8BA
:1000DC00D41A08600020DFF8D01A0870DFF8CC0AB8
:1000EC00006800905FF40010DFF8C41A08605FF439
:1000FC000000DFF8C01A08605FF08070DFF8B41AF7
:10010C000860642100A801F033F90028F9D05FF4ED
:10011C000010DFF8A01A0860DFF8900A0068009061
:10012C004FF47A7100A801F023F90028F8D0DFF819
:10013C007C0A00680090DFF8800A0068C00709D4C8
:10014C00E4B2002C06D14FF47A7100A801F010F93A
:10015C000400F0E7E4B2002C13D100F028F800F012
:10016C003FFDDFF8580A00F086FCDFF8501A0871E2
:10017C00DFF8480A00F033FB4FF47A713E2000F0B0
:10018C00E6FB13BD0020C82801D2401CFBE75FF042
:10019C008070DFF81C1A08600020142801D2401C63
:1001AC00FBE75FF08070DFF80C1A08607047F0B561
:1001BC008BB006A8DFF8081A112201F00BF900A881
:1001CC00DFF8001A182201F015F90027DFF8E8090A
:1001DC000068C00740F10B81DFF8EC0900680600ED
:1001EC000020DFF8E8190860DFF8E4090068C000B7
:1001FC0009D5DFF8DC09006830F08050DFF8D01941
:10020C000860761E15E0FFF7BDFFDFF8AC0900684B
:10021C0040070ED4DFF8B409006842F2107188422E
:10022C0007D2DFF8A8090068401CDFF8A0190860A5
:10023C00EBE7DFF89809006842F21171884205D3A8
:10024C0000F0D7F806A801F011F9D0E0DFF8680942
:10025C00006830F00400DFF860190860DFF840092E
:10026C0000680078A42840F08680DFF864090068F4
:10027C0050F08060DFF858190860FFF783FFDFF853
:10028C0038090068C0070ED5DFF84009006842F253
:10029C001071884207D2DFF834090068401CDFF87F
:1002AC002C190860EBE7DFF82809006830F0806053
:1002BC00DFF81C190860DFF80009006830F0040052
:1002CC00DFF8F4180860DFF80409006842F21071D6
:1002DC00884246D2DFF8F0080068861BDFF8C008B9
:1002EC0000680078040000F09AF8DFF8B4080068A1
:1002FC000078801C0500EDB2A81C864207D0DFF800
:10030C00D008006850F00100DFF8C4180860DFF86E
:10031C00900800680078444000F081F86D1EEDB242
:10032C00002DF4D1DFF8780800680078E4B284423C
:10033C000ED1DFF874080078401CDFF86C180870D8
:10034C00DFF890080068401CDFF8881808601BE094
:10035C00DFF84C080068DFF84C18086000F073F800
:10036C0012E0DFF874080068401CDFF86C180860B5
:10037C000120070008E0DFF864080068401CDFF883
:10038C005C18086001200700FFB2002F2DD000A8D8
:10039C0001F06CF8DFF820080068C00710D5DFF812
:1003AC002C08006842F21071884209D2DFF81C0850
:1003BC000068401CDFF814180860FFF7E3FEE9E75B
:1003CC00DFF8D8070068DFF8D8170860DFF8CC072B
:1003DC000068DFF8D0170860DFF8DC07006830F041
:1003EC000600DFF8D417086001E000F018F80BB035
:1003FC00F0BD72B6DFF8A007DFF8A0170860DFF8D1
:10040C009807DFF89C170860DFF88C07DFF8941763
:10041C0008600020DFF89017087062B67047DFF8AC
:10042C0080070068401CDFF878170860DFF8700759
:10043C000068DFF8881B884204D1DFF85C07DFF81E
:10044C00601708607047DFF85C070068401CDFF835
:10045C0054170860DFF84C070068DFF8601B88420F
:10046C0004D1DFF83407DFF83C17086070472DE93A
:10047C00F04F83B004000D0000265FF0000B4FF628
:10048C00FF7AFF208DF80200FF275FF0FF38FF2076
:10049C008DF80400FF208DF803004FF6FF792078CB
:1004AC008DF80000A0788DF805009DF80000092853
:1004BC0003D100208DF8010066E09DF800001228A1
:1004CC0003DA9DF80000092807DADFF8080D00F0C0
:1004DC00CDFF00208DF8010056E0E07A06000120E7
:1004EC008DF80100300621D55FFA8BFB1BEB040065
:1004FC00007B82461BF1010B5FFA8BFB1BEB0400AC
:10050C00007B5AEA002A1BF1010B5FFA8BFB1BEBF9
:10051C000400007B8DF802001BF1010B5FFA8BFBD2
:10052C001BEB0400007B07001BF1010B70061AD5B6
:10053C005FFA8BFB1BEB0400007B8DF804001BF1B6
:10054C00010B5FFA8BFB1BEB040090F90C0080464F
:10055C001BF1010B5FFA8BFB1BEB0400007B8DF88E
:10056C0003001BF1010BB0060ED55FFA8BFB1BEBE6
:10057C000400007B81461BF1010B5FFA8BFB1BEB2C
:10058C000400007B59EA00296E709DF80500287064
:10059C00A5F802A09DF8020028716F7185F80680FD
:1005AC009DF80100BDE8FE8F38B5DFF8700B0068D0
:1005BC00C00109D5DFF8680B00F058FFDFF8640BB9
:1005CC00DFF8141C086003E15FF40010DFF8581B1F
:1005DC000860DFF8580B00F049FF0020DFF8841C9E
:1005EC0008600020DFF8801C08600020C0B20828DA
:1005FC0070DADFF8E81BC0B2142202FB001108709D
:10060C00FF21DFF8D82BC0B2142303FB002251705A
:10061C00FF21DFF8C82BC0B2142303FB002291701A
:10062C00FF21DFF8B82BC0B2142303FB0022D172D8
:10063C00FF21DFF8A82BC0B2142303FB0022117397
:10064C00FF21DFF8982BC0B2142303FB0022517357
:10065C00FF21DFF8882BC0B2142303FB0022917317
:10066C00FF21DFF8782BC0B2142303FB0022D173D7
:10067C00FF21DFF8682BC0B2142303FB0022117496
:10068C00FF21DFF8582BC0B2142303FB0022517456
:10069C00FF21DFF8482BC0B2142303FB0022917416
:1006AC000021DFF8382BC0B2142303FB0022D174D5
:1006BC000021C9B208290BDADFF8202BC0B21423B1
:1006CC0003FB0022C9B28A180023D370491CF0E73F
:1006DC00401C8BE70420DFF8081B0870DFF8040BC4
:1006EC00DFF8FC1A48605FF48000DFF8F41A8860C9
:1006FC000120DFF8EC1A08730220DFF8E41A4873C3
:10070C000FF22130DFF8D81A08610FF23130DFF820
:10071C00D01A4861DFF88004DFF8C41A8861DFF86A
:10072C007C04DFF8BC1AC8614FF48070DFF8B01A93
:10073C000884DFF8AC0A01F05BFADFF8301B0860C4
:10074C000020DFF874140860FFF7B2FCDFF8200B10
:10075C000078C0061BD5DFF81C0B00F087FEDFF815
:10076C00880A00F083FEDFF8100B00F07FFE00F02B
:10077C008FFEDFF85C04006830F48030DFF8501432
:10078C000860DFF8F80ADFF8501A086020E0DFF89C
:10079C00F00A00F06BFE5FF0307004005FF0F07058
:1007AC000500DFF8E00A0460DFF8DC0A0460DFF81B
:1007BC00DC0A0560DFF82C0A0560DFF8D40A046057
:1007CC00DFF8D00A0560DFF85C09DFF80C1A086066
:1007DC0031BD80B5DFF8000A0068804701BDF0B577
:1007EC0099B00400DFF8B00A076810A8DFF8AC1A5B
:1007FC00212200F0EFFD0AA8DFF8A41A152200F060
:10080C00E9FD05A8DFF89C1A122200F0E3FD00A810
:10081C00DFF8941A112200F0DDFDDFF8B403006854
:10082C0010F0406F04D010A800F020FE00208CE0E7
:10083C000020DFF8981308605FF40000DFF87013F5
:10084C000860DFF874030068C0070ED4DFF87C037F
:10085C00006842F21071884207D2DFF8700300681A
:10086C00401CDFF868130860EBE7DFF860030068F2
:10087C0042F21171884208D35FF40000CD49086040
:10088C000AA800F0F3FD00205FE0FFF77BFCCA48EC
:10089C00006840070BD4CD48006842F210718842C2
:1008AC0005D2CA480068401CC8490860EFE75FF4ED
:1008BC000000C0490860C548006842F211718842C6
:1008CC0004D30AA800F0D2FD00203EE0B448006832
:1008DC0000780500EDB2A42D07D1BD48006850F09A
:1008EC008050BB49086000202FE0FFF798FDFFF710
:1008FC00AAFDB148006830F00400AF490860EDB2C1
:10090C00A52D1ED1B248006850F00060B0490860B7
:10091C002078C01C060022003100DFF85009006866
:10092C0001F00AFADFF884190860DFF88009006822
:10093C00002801D0012008E005A800F097FD002058
:10094C0003E000A800F092FD002019B0F0BDF0B556
:10095C0089B004000D0000260127DFF83C0900686F
:10096C00009001A8DFF848191A2200F033FD8F48D7
:10097C000068009090480068C00709D5F6B2002EB8
:10098C0006D14FF47A7100A800F0F2FC0600F1E7F2
:10099C00F6B2002E1CD18E48006830F000608C49F5
:1009AC00086000F0A9FB0020DFF8001908607F4800
:1009BC000068009080480068C00709D4F6B2002E89
:1009CC0006D14FF47A7100A800F0D2FC0600F1E7D2
:1009DC00F6B2002E1AD1FFF7EAFB73480078002814
:1009EC0014D0DFF8D0080068807840280ED1DFF8EA
:1009FC00C40800680079E4B2A04207D1DFF8B4085B
:100A0C0000684079002801D10020070000F0E8F8C8
:100A1C00F6B2002E02D001A800F028FD3800C0B2BA
:100A2C0009B0F0BD80B5DFF890080068401CDFF815
:100A3C0088180860FFF7A6FB01BD000080B562486E
:100A4C000068401C6049086054480068401C5349C9
:100A5C00086052480068DFF86415884203D1DFF85B
:100A6C0060054E490860DFF854080068400101D564
:100A7C00FFF788FB01BD10B401000878821CA5208B
:100A8C000023DBB2D2B2934204D20C786040491CF2
:100A9C005B1CF6E7C0B210BC70472DE9F0418AB080
:100AAC000400002600A8DFF81818282200F0A2FC89
:100ABC00DFF810080068401CDFF8081808601C20DC
:100ACC0001F0E8FC0700002F04D100A800F0CEFCD8
:100ADC00002042E02078C01C05000020C0B2EDB21E
:100AEC00A84206D2C0B2015DC0B2C2191171401C3D
:100AFC00F4E72E48006838600020B861DFF868071A
:100B0C00006800280AD1DFF860070760DFF8B80733
:100B1C000068401CDFF8B01708601DE0DFF84807DC
:100B2C0000688046D8F81800002803D0D8F8188040
:100B3C00761CF7E7F6B2202E09D2C8F81870DFF849
:100B4C0088070068401CDFF88017086004E000A8E4
:100B5C0000F08CFC002000E001200AB0BDE8F08120
:100B6C0010B5DFF800070068002814D0DFF8F40691
:100B7C0000680400DFF8EC0600688069DFF8E41612
:100B8C000860200001F0DEFCDFF840070068401E22
:100B9C00DFF83817086010BD8C1200201C190020DB
:100BAC002019002024190020511A0020A01900201F
:100BBC00340E0E40300E0E40CC19002028040020BC
:100BCC009C5308002453080008190020FC1800202E
:100BDC00EC180020381900200C19002010190020E6
:100BEC0070B588B0DFF8E8060078002801D1012044
:100BFC00E1E1DFF8E0060068401CDFF8D816086079
:100C0C00DFF8CC060078401EDFF8C4160870FFF73A
:100C1C001AFCDFF8A006006800780400E4B2122C7D
:100C2C0001DB0120C7E10026F6B2E4B2E01C8642EB
:100C3C000ADADFF880060068007800A9F6B2705472
:100C4C00FFF701FC761CEFE79DF8020005009DF80C
:100C5C0001003E2800F08D8140280CD04E2800F079
:100C6C0071814F2800F06E81522800F081816F282D
:100C7C0000F0938198E19DF80300012800F0DA80E0
:100C8C00DFF8540605709DF80300DFF84C16487029
:100C9C009DF80400DFF8401688709DF80300412889
:100CAC0063D0422856D04B2807D04C2833D05B2831
:100CBC007AD1DFF8280600F0D9FB15F13000DFF807
:100CCC0020160873DFF8180600F0D0FB9DF804001E
:100CDC0000281FD1DFF80405EDB2142101FB05003B
:100CEC00C07C50F00400DFF8F414EDB2142202FBC7
:100CFC000511C874DFF8E404EDB2142101FB050002
:100D0C00C07C10F0FD00DFF8D414EDB2142202FB0D
:100D1C000511C87478E09DF802003030DFF8C41576
:100D2C000873DFF8C00500F0A1FB9DF80400002853
:100D3C000FD1DFF8A804EDB2142101FB0500C07C33
:100D4C0010F0F300DFF89414EDB2142202FB05113D
:100D5C00C87459E09DF802003030DFF88C15087328
:100D6C00DFF8840500F082FB4EE09DF80200303085
:100D7C00DFF878150873DFF8740500F077FB9DF841
:100D8C00040000280FD1DFF85404EDB2142101FB4C
:100D9C000500C07C10F0F100DFF84014EDB2142215
:100DAC0002FB0511C8742FE09DF802003030DFF80B
:100DBC00401508739DF80300C0B2000900F0F4FA66
:100DCC00DFF82C1508769DF8030010F00F0000F0EA
:100DDC00EBFADFF81C1548769DF80400C0B2000948
:100DEC0000F0E2FADFF8081581F824009DF8040001
:100DFC0010F00F0000F0D8FADFF8F41481F8250099
:100E0C00DFF8EC0400F032FB9DF80400002804D15C
:100E1C00DFF8600400F02AFB93E0DFF8D80400F060
:100E2C0025FBDFF89804006850F00200DFF88C1402
:100E3C00086086E09DF8040000280ED0012859D0E7
:100E4C0002280ED0032833D005283DD006284DD0DB
:100E5C00072853D0082827D063E0002000F0B2F810
:100E6C006FE0DFF894040078401CDFF88C140870F5
:100E7C00DFF884040078002812D1DFF880040078B1
:100E8C00401CDFF878140870DFF870040078002834
:100E9C0006D1DFF86C040078401CDFF8641408708D
:100EAC0000A800F08FF84CE000A800F08BF848E0A8
:100EBC00CA48EDB2142101FB05004078102802D17C
:100ECC0000A800F07FF83CE0C448EDB2142101FB0F
:100EDC000500C07C50F01000C049EDB2142202FB9A
:100EEC000511C87400A800F06DF82AE000A800F005
:100EFC0069F826E000A800F065F822E0DFF80404A9
:100F0C0000F0B4FAB548EDB2142101FB0500C07C29
:100F1C0010F0F300B149EDB2142202FB0511C874B4
:100F2C000FE09DF8040000F0C1FADFF8DC0300F0DC
:100F3C009DFADFF88803006850F00400DFF87C139A
:100F4C00086037E005A900A8FFF791FA05AA0DF192
:100F5C000301012000F06DF8A048EDB2142101FB53
:100F6C0005004078002802D1002000F02BF821E089
:100F7C0020E00020C0B20A2808DA00A9C0B241184B
:100F8C008978BD4AC0B28154401CF3E7B848006868
:100F9C0050F01000B64908600CE0C848006850F4E6
:100FAC008030C649086005E0C448006850F008006D
:100FBC00C2490860002008B070BD00008C130020EE
:100FCC008C1200201FB50400FF208DF80000A078C3
:100FDC008DF80100E0788DF8020020798DF803007F
:100FEC00FF208DF80400C64800788DF80500C34832
:100FFC0000788DF80600C04800788DF807009DF841
:10100C0001008DF80800FF20ADF80A00FF208DF8D4
:10101C000C00FF208DF80D005FF0FF308DF80E00F6
:10102C00FF208DF8090002AA00A9022000F001F8A7
:10103C001FBD2DE9F0438BB004000D0016005FF0CE
:10104C00000900A8B1492B2200F0C4F91C2001F0C2
:10105C0021FA0700002F04D100A800F007FA0020A5
:10106C0047E00020C0B2082806DAC0B2415DC0B229
:10107C00C2199171401CF5E7A548006838603C71B5
:10108C003078B873708838823079B8747079F874A5
:10109C007078F873B07938750020B86171480068C1
:1010AC00002807D16F48076088480068401C8749B2
:1010BC0008601DE06B4800688046D8F818000028CE
:1010CC0004D0D8F8188019F10109F6E75FFA89F90C
:1010DC00B9F1200F07D2C8F818707C480068401C82
:1010EC007A49086004E000A800F0C0F9002000E094
:1010FC0001200BB0BDE8F08310B55B4800680028F8
:10110C000AD059480068040057480068806956495D
:10111C000860200001F016FA10BD000088190020AC
:10112C000401002041130800100E0E400C03002097
:10113C0070B5012400256148006800041BD0754877
:10114C0000F094F90026F6B2042E0EDA5B48006823
:10115C00204206D07048EDB2142101FB050000F0CE
:10116C0085F964006D1C761CEDE754480068000C92
:10117C00000452490860FFF733FD68480068C00757
:10118C0004D50FF239001449086016E0474800688E
:10119C00002812D13448006800280ED0324800686C
:1011AC00001DFFF71CFB002807D0594800685C495C
:1011BC0008600FF239000849086070BD80B55948C5
:1011CC000068401C57490860FEF7F1FF2B480249A4
:1011DC00086001BD78500800F81800208C1400201D
:1011EC0088170020000E0E400054080010B52F4840
:1011FC00006801F0E7F90400E4B22000001F0128A8
:10120C002ED8FFF779FF0020284908602B4800688A
:10121C0030F000602949086040480068C0070BD5D1
:10122C003F48006842F21071884205D23C48006881
:10123C00401C3B490860EFE73B48006842F21171E3
:10124C00884209D3394800F011F934480068C007C6
:10125C0002D5FEF797FFF8E7084835490860FFE725
:10126C0010BD0000F41800202C19002018190020C3
:10127C008C190020E8030020C41800203D11080040
:10128C0028020020040C0E40000C0E40040E0E40F0
:10129C00140C0E40140E0E40A41900209C50080093
:1012AC003C530800B0530800C45308001419002024
:1012BC00AC5208002419002004190020EC1800205E
:1012CC00285008004019002030190020281900204F
:1012DC00511A00203C190020F0180020305408004E
:1012EC0084030020F4020020C4020020DC02002051
:1012FC00DC010020F0030020541A0020531A0020B7
:10130C00521A0020D853080030520800FC4F080035
:10131C00A0190020C003002070000020CC19002070
:10132C000019002034190020FC180020480200206D
:10133C00F81800207047FEE7FEE7FEE7FEE7FEE741
:10134C00FEE7FEE7FEE7FEE7FEE7FEE7FEE7FEE769
:10135C00FEE7FEE7FEE7FEE7FEE7FEE7FEE7FEE759
:10136C00FEE7FEE7FEE7FEE7FEE7FEE7FEE7FEE749
:10137C0010B40200164800681468A04205D3144843
:10138C0000681468001B030007E05FF0FF3014686E
:10139C00001B0F4C2468201803008B4201D2002044
:1013AC0000E0012010BC70470100FF20C9B20A29DF
:1013BC0003DA11F13002100008E0C9B20A2905DB8A
:1013CC00C9B2102902DA11F157021000C0B27047ED
:1013DC00A019002062B38B0708D0521E11F8013BF4
:1013EC0000F8013B00F024808B07F6D1830740F016
:1013FC00208000BF103A07D330B4B1E83810103A4F
:10140C00A0E83810F9D230BC530724BFB1E808105B
:10141C00A0E8081044BF51F8043B40F8043BD20745
:10142C0024BF31F8022B20F8022B44BF0B78037039
:10143C007047083A07D3B1E80810083A40F8043B63
:10144C0040F804CBF7D25307E4E750F8041B61B122
:10145C0050F8042BD30744BFA9F101039A180023B9
:10146C0042F8043B091FFAD1EFE7704770B504004E
:10147C00250000262878002802D0761C6D1CF9E780
:10148C0022003100DFF8AC06006801F0B3FA70BD41
:10149C0080B5DFF8A4060088ADF8000000AA022190
:1014AC00DFF89006006801F0A5FA01BD2DE9FE43B6
:1014BC00040000250026DFF884860020C0B20A282C
:1014CC0019DAB4FBF8F1303100AAC0B2815400A98A
:1014DC00C0B2415C302901D001210D00EDB2002DCC
:1014EC0000D0761CB4FBF8F108FB11440A21B8FBC0
:1014FC00F1F8401CE2E7EDB2002D01D1012006000D
:10150C00F6B2300000F0C6FF8146B9F1000F08D1E9
:10151C000220DFF82C1608700FF2E550DFF82416C5
:10152C000860092007003000C0B2002809D000A9CB
:10153C00795CC0B210EB090202F8011C7F1E401E40
:10154C00F2E74A46F6B23100DFF8E805006801F030
:10155C0051FA484600F0F6FFBDE8F78370B5ACB021
:10156C0000A8DFF8F0151122FFF734FF19A8DFF8F7
:10157C00E8154822FFF73EFF0124012505A8DFF8F6
:10158C00DC155022FFF736FF19A8FFF76FFF002676
:10159C00F6B2082E12DADFF8C805006804420AD148
:1015AC000020050005A8F6B20A2101FB0600FFF792
:1015BC005DFFFFF76DFF6400761CE9E7EDB2002DCF
:1015CC0002D000A8FFF752FFFFF762FF2CB070BDEE
:1015DC0000B585B0002080B2802806D20021DFF84B
:1015EC00842580B28154401CF5E70020DFF85815A3
:1015FC0008700020C0B2802806DA0021DFF84C25E4
:10160C00C0B28154401CF5E7DFF85805DFF85815D7
:10161C000860DFF85005DFF854150860DFF8500556
:10162C00DFF85015086002208DF80000DFF8340553
:10163C000190DFF8380502908020ADF802000FF21F
:10164C005900039000A801F021F9DFF8E8140860B4
:10165C00DFF8E0040068002805D10FF2A540DFF8A0
:10166C00E414086010E0DFF81005FFF7FFFEDFF868
:10167C00F004006850F00400DFF8E41408600FF286
:10168C005D20DFF8C014086005B000BD80B5DFF840
:10169C00B4040068804701BDDFF8D0040068401C2A
:1016AC00DFF8C8140860DFF8C4040068DFF8CC1455
:1016BC00884204D1DFF8AC04DFF8B014086070473E
:1016CC0010B592B00AA8DFF8B8141922FFF782FE01
:1016DC003A208DF8020020208DF803000A208DF8A6
:1016EC0024000D208DF8250000208DF826000AA876
:1016FC00FFF7BCFE0024E4B2082C2CDAE4B20A2C6E
:10170C0007DBE4B20A2094FBF0F030308DF80000D7
:10171C0002E030208DF80000E4B20A2094FBF0F1D6
:10172C0000FB114030308DF801000020C0B22028A1
:10173C000CDADFF85014E4B251F83410C0B2415C4A
:10174C0000AAC0B282181171401CEFE700A8FFF785
:10175C008DFE641CCFE7FFF79BFE12B010BD10B5D9
:10176C0084B000A8DFF820141CC91CC00C390C383C
:10177C0000A8FFF77BFE1FBD10B584B000A8DFF8F2
:10178C000C141CC91CC00C390C3800A8FFF76EFED9
:10179C00DFF8BC030078C0070CD5DFF8B403006891
:1017AC0040084000DFF8A8130860DFF8E403FFF7F7
:1017BC005DFE3BE0DFF89803006850F00100DFF8B5
:1017CC0090130860DFF8CC03FFF750FE002001F007
:1017DC0003FB012001F000FB022001F0FDFA0320C5
:1017EC0001F0FAFA042001F0F7FA052001F0F4FAFE
:1017FC00062001F0F1FA072001F0EEFA002001F0CA
:10180C00EBFA012001F0E8FA022001F0E5FA0320DE
:10181C0001F0E2FA042001F0DFFA052001F0DCFA15
:10182C00062001F0D9FA072001F0D6FA1FBD10B539
:10183C000400E4B2572C02D1002001F028FBE4B2E2
:10184C00502C02D1012001F022FBE4B2422C02D137
:10185C00022001F01CFBE4B2432C02D1032001F066
:10186C0016FBE4B2472C02D1042001F010FBE4B2C9
:10187C00592C02D1052001F00AFBE4B24F2C02D105
:10188C00062001F004FBE4B2522C02D1072001F037
:10189C00FEFA10BD00B589B000A8DFF8FC122322B7
:1018AC00FFF798FD00A8FFF7E1FDA9480078800735
:1018BC0009D5A748006830F00200A5490860B44873
:1018CC00FFF7D4FD08E0A248006850F00200A049E0
:1018DC000860B048FFF7CAFD09B000BD38B5002458
:1018EC00A1480068A1490968884200F09A80E4B2D6
:1018FC00002C40F096809C48006800780500EDB202
:10190C002800082802D00D2833D03CE090480078FD
:10191C0040070DD58C480078802826DA8B488A49F8
:10192C0009780D5488480078401C874908701CE0E1
:10193C0085480078002809D083480078401E8249E9
:10194C00087000208149804A1278505489480068F8
:10195C008749884209D087480068401E854908603D
:10196C008E480088401E8D4908808D48FFF77EFD0B
:10197C0040E077480078400705D4012004000FF2BE
:10198C00B5007049086070480078802808DA6F4804
:10199C006D4909780D546C480078401C6A490870F0
:1019AC002900C9B26348006801F00CF86848007857
:1019BC0040071FD46F48006805706E480068401CD3
:1019CC006C49086075480088401C74490880694857
:1019DC000068744988420DD3EDB20D2D0AD06448CD
:1019EC006449086000206D4908806F48FFF73EFD90
:1019FC006E49086056480078C00703D52800C0B26D
:101A0C00FFF715FF58480068401C574908605648B6
:101A1C0000685A498842FFF463AF52485249086043
:101A2C005EE762480068002803D06048006800F058
:101A3C00C9FD31BD70B50124002005004C48EDB244
:101A4C00285C5B49EDB2695C884201D0002004003F
:101A5C006D1CE4B2002C02D0EDB2042DEEDBE4B22E
:101A6C00002C2ED0002004004148EDB2285630380E
:101A7C0006006D1C76B2002E23D476B20A2E20DA24
:101A8C000A2000FB06F04B4908703948EDB2285685
:101A9C00303806006D1C76B2002E12D476B20A2EA7
:101AAC000FDA4448007830184249087041480078F1
:101ABC00082806DA2E48EDB2285C0D2801D1012049
:101ACC000400E4B2002C04D00FF21D001D49086084
:101ADC0005E03948FFF7CAFC38481A490860244821
:101AEC002449086070BD000080B534481549086071
:101AFC0024483049097810EBC1004068804701BD8B
:101B0C0080B51348006850F00040114908602C481B
:101B1C00FFF7ACFC0A480078FFF7C8FCFFF7B8FCED
:101B2C0000201E49088012481249086023480549C4
:101B3C00086001BD6C1900206E31080000CA9A3B88
:101B4C005A1A002068190020591A00202C15002060
:101B5C0064190020EC5308007C4F08002C4F08003F
:101B6C008C190020AC150020781900207419002065
:101B7C00AC1600207C190020C00000202C16002080
:101B8C00C8520800440100203C5408004854080086
:101B9C005004002048040020E05108004C1A00209A
:101BAC005C040020EC160020680200207019002054
:101BBC00380400205B1A0020AC030020E918080050
:101BCC0024030020012110F01F029140DFF850285F
:101BDC0040B2430942F823107047012110F01F0254
:101BEC009140DFF8402840B2430942F82310704777
:101BFC002DE9F04704002078022804D034D30428BF
:101C0C0021D010D330E0DFF820080500502006006A
:101C1C00DFF818080700082080467FF0080081468E
:101C2C001A20824622E0DFF8080805006020060032
:101C3C00DFF800080700002080465FF0FF30814687
:101C4C003020824612E0DFF8F00705005020060035
:101C5C00DFF8E80707005FF4002080465FF0FF30F4
:101C6C0081460020824601E0002063E02869C00222
:101C7C0001D500205EE0DFF8C8070068012195F966
:101C8C00262091400843DFF8B81708606068686048
:101C9C00A068A860207B2873607B687320696861EA
:101CAC006069A861A069E861E0692862208CA88459
:101CBC00286950F4801028612868066028684760FD
:101CCC002868C0F808802868C0F80C902868C0F80C
:101CDC0020A0687B01281BD1A0692968C1F80001EC
:101CEC00A069401C2968C1F8100101202968C1F8BD
:101CFC00040101202968C1F814010020286240F277
:101D0C0001102968C1F820015FF40020296888605F
:101D1C00687B022803D1DFF82C072968886095F9C5
:101D2C00260040B2FFF759FF95F9260040B2FFF7A5
:101D3C0049FF2800BDE8F087F8B504000D00160037
:101D4C003200290014F1280000F058FC0700002F85
:101D5C0001D1002007E0DFF8F4060068002801D567
:101D6C0000F087F83800F2BD70B5DFF8E806DFF850
:101D7C00B81608600020DFF8B01648600020DFF8C5
:101D8C00A81688620020DFF8A016C8610020DFF8D2
:101D9C00981688840020DFF8901608620020DFF87F
:101DAC00881608610D20DFF8801681F82600DFF810
:101DBC00A806DFF87C1608600020DFF8741648606F
:101DCC000020DFF86C1688620020DFF86416C8610A
:101DDC000020DFF85C1688840020DFF854160862B7
:101DEC000020DFF84C1608610E20DFF8441681F84D
:101DFC002600DFF86806DFF8401608600020DFF8E0
:101E0C00381648600020DFF8301688620020DFF8B2
:101E1C002816C8610020DFF8201688840020DFF81F
:101E2C00181608620020DFF8101608610F20DFF882
:101E3C00081681F82600DFF8F005DFF82416086094
:101E4C008024FF25DFF808662A002100300001F00D
:101E5C0055F90FF20D40DFF8F0150860DFF80406B5
:101E6C00FFF704FB70BD80B5DFF8DC050068804728
:101E7C0001BD80B5DFF8F005006850F00100DFF817
:101E8C00E8150860DFF8A005DFF8D4150860DFF866
:101E9C00D8050078C0070FD5DFF8AC05006880477F
:101EAC00DFF8C8050068DFF8C81508600121DFF805
:101EBC00C005FFF75DFAEAE701BD80B5DFF87005F4
:101ECC00DFF8B0150860DFF8B405DFF8AC15086072
:101EDC00DFF8AC050068401CDFF8A415086000F0C2
:101EEC0016F801BD80B5DFF85005DFF888150860DD
:101EFC00DFF89005DFF880150860DFF88C050068C6
:101F0C00401CDFF88415086000F001F801BD70B5C5
:101F1C00DFF860050068006840690600DFF85405CA
:101F2C00006800680069000338D5300336D5DFF847
:101F3C00440500684068C06BDFF83815096889688B
:101F4C00084214D1DFF830050068006850F0010039
:101F5C00DFF8241509680860DFF81C0500680068C4
:101F6C0030F00600DFF810150968086016E0DFF89D
:101F7C0008050068006840084000DFF8FC14096898
:101F8C000860DFF8F0040068407B012806D10120CE
:101F9C00DFF8E01409680968C1F80401DFF8D4041B
:101FAC00006800680069800570D5B0056ED5DFF853
:101FBC00C4040068C06A401EDFF8B8140968C8621F
:101FCC00DFF8B0040068006880690400DFF8A4043E
:101FDC000068C06A002825D0DFF898040068006B00
:101FEC00401CDFF8901409680863DFF88804006867
:101FFC00006B00780400DFF87C040068007B01288B
:10200C0003D194FAA4F0000E04002000C0B2DFF853
:10201C00641409680968C861DFF8580400684069ED
:10202C00804733E04FF40070DFF848140968096802
:10203C00C860DFF840040068006930F40010DFF875
:10204C003414096808610421DFF828040068806AE8
:10205C00006800F0B9FBDFF81C040068283000F0C1
:10206C004AFB0120DFF80C14096809688860DFF866
:10207C0008040068006850F00200DFF8FC130968DF
:10208C000860DFF8F003006840698047DFF8E4037C
:10209C00006800680069C00737D5DFF8D80300680E
:1020AC0000684069C00730D5DFF8C80300680068D5
:1020BC008069C0B20400DFF8BC030068007B012813
:1020CC0003D194FAA4F0000E04002000C0B2FF2843
:1020DC0006D1DFF8B8030068401CDFF8B0130860C5
:1020EC00DFF890030068006A00680470DFF888036A
:1020FC000068006850F00400DFF87C130968086081
:10210C00DFF87003006880698047DFF868030068B7
:10211C0000680069000762D5300760D5DFF854030A
:10212C000068407B00282BD10421DFF848030068AD
:10213C00806A006800F048FBDFF83803006828303C
:10214C0000F0D9FADFF82C030068006930F4800045
:10215C00DFF8201309680861DFF81803006880684D
:10216C00C4490968496808630220C24909680968BA
:10217C00C1F820010820BF4909680968C8602EE031
:10218C00BD480068006850F00400BB49096808604D
:10219C00B84800680068D0F81001401CB5490968BF
:1021AC000968C1F81001B34800680068D0F8000154
:1021BC00B0490968C969AF4A1268928C51188842B3
:1021CC0007D1AC480068C069AA4909680968C1F818
:1021DC0000010120A74909680968C1F81401A54844
:1021EC00006800680069C00639D5F00637D50421AF
:1021FC00A0480068806A006800F0E6FA9D48006814
:10220C00283000F078FA9B480068006930F4001020
:10221C009849096808614FF4007096490968096883
:10222C00C1F820011020934909680968C860002092
:10223C0005009048006800684069800503D4642D4F
:10224C0001D26D1CF5E78B480068407B002806D155
:10225C00884800688068874909684968086370BDC8
:10226C0010B57F480068806A002800F0B5807C4873
:10227C000068006910F4C00F40F0AE807848006828
:10228C00407B002806D1764800688068744909684C
:10229C004968486372480068806A08306C49884213
:1022AC002CD103216E480068806A006800F08CFA1B
:1022BC006B480068006950F480006949096808613E
:1022CC0067480068806A0830654909680968C1F880
:1022DC00000163480068806A4068614909680968C0
:1022EC00C1F8040108205E4909680968886001206A
:1022FC005B4909680968C1F820016DE00221584862
:10230C000068806A006800F05FFA55480068006950
:10231C0050F4001052490968086151480068407B2C
:10232C0002283BD14E480068806A40684C490968D5
:10233C00C8624B480068806A0830494909680863DC
:10234C0047480068006B0078040045480068007B33
:10235C00012803D194FAA4F0000E0400082040498F
:10236C0009680968086040203D49096809680860E7
:10237C002000C0B23A4909680968C861012038498F
:10238C0009680968C8604FF4007035490968096824
:10239C00886033480068406980471DE03048006819
:1023AC00806A08302E4909680968C1F808012C4870
:1023BC000068806A40682A4909680968C1F80C01FC
:1023CC00102027490968096888604FF480702449F7
:1023DC0009680968C1F820012148006890F82600B6
:1023EC000D2804D015D30F2809D004D311E01048C0
:1023FC001B49086013E01048194908600FE00A48AF
:10240C0017490860184800684008400016490860E1
:10241C0005E01F48FFF72AF803481149086010BD72
:10242C0000E100E080E200E0EC160020C008400073
:10243C0020170020CE18450054170020FF1841002B
:10244C0010040E4001000800D0190020881900204B
:10245C002C16002000000940004009400080094073
:10246C00DC19002054030020D8190020A0190020EA
:10247C00D4190020E0190020E4190020C81900200C
:10248C00E8190020CC190020EC190020F0190020CC
:10249C006C03002070B5054605F10F00C408E4007C
:1024AC00C046C046A54232D2082C04D2082402E011
:1024BC00083000F047F82248026811000CD1011DC9
:1024CC000A6802B31368A34238BF111DF8D310E099
:1024DC001D68A5420DD2191D0B68002BF8D112688E
:1024EC00011D00E0191D0B6893420CD01D68A5421C
:1024FC00F8D361B10D682A68A2F10803A3420AD28D
:10250C006A680A600FE000F02DFE0028D0D1C046AA
:10251C00C046002070BD63190B60121B6E685E60B4
:10252C000B681A602C60096800291DBF4A68002AD4
:10253C00091D00210160C046C04605F1080070BDB0
:10254C00E018002000B9704738B5A0F108042068E5
:10255C00082833D310F0070F30D1C046C0461848B6
:10256C00416809B18C4203D26160446017E019469E
:10257C004B680BB1A342FAD30B685D18AC421BD36A
:10258C00A54204D12268D2180A600C4607E04A68BA
:10259C001AB123681B199A420ED362604C606168B1
:1025AC0051B1226813198B4206D1002303600868CD
:1025BC008018206048686060C046C04631BD00008D
:1025CC00E01800200100FF209A4A13688B4204D0C7
:1025DC00994B9A4201D00C32F7E7974B9A420BD0A9
:1025EC0013791800C0B2042802D0C0B2052803D158
:1025FC000023136000231371C0B270472DE9F84F0C
:10260C0004000D001600AB465FF000098B48007803
:10261C00102807D18A48006850F0010088490860EA
:10262C00002066E0BBF1000F62D084480078401CAB
:10263C0082490870814800780E2806DB80480068C3
:10264C0050F002007E49086005E07D48006830F0DB
:10265C0002007B4908607B4882469AF800000028FB
:10266C0002D11AF1900AF8E700208AF800001AF15A
:10267C0004000700BBF1810F04D380208146BBF11D
:10268C00800B02E0D946002083466F480068386012
:10269C00C7F804900020C7F88800002079688842A9
:1026AC0005D23178C2191172761C401CF6E72068ED
:1026BC00002801D127600AE020688046D8F88800FD
:1026CC00002802D0D8F88880F8E7C8F888705E48EF
:1026DC00006800F087F85C480068401C5A490860A4
:1026EC005948006800289DD101205749086099E796
:1026FC003868BDE8F28F0268002A06D1504A126889
:10270C0052F004024E4B1A601FE04E4A11000A1D93
:10271C0003689A4204D04D4A914201D09031F6E7B9
:10272C004A4A914206D1464A126852F00802444B7A
:10273C001A600AE00268D2F88820026001220A704E
:10274C003E4A1278521E3D4B1A70704700203B498E
:10275C00087001203C490860002080B2102808DA7B
:10276C000121384A80B2902303FB00221170401CD7
:10277C00F3E7002080B2402816DA00212D4A80B2FF
:10278C000C2303FB0022116000212A4A80B20C2387
:10279C0003FB002211710021264A80B20C2303FB9B
:1027AC0000229160401CE5E722482949086000207E
:1027BC00234908600FF2610026490860704780B514
:1027CC0024480068804701BD1A4A1368834204D02C
:1027DC00194B9A4201D00C32F7E7174B9A4200D0B2
:1027EC00117170471A49096808600121184A12686A
:1027FC00117119490968164A1268916014490968DF
:10280C000C31134A1160124909680B4A914202D1EA
:10281C0008490F4A1160704710480068401E0F4964
:10282C0008600E480068002803D14FF47A700B49F9
:10283C0008607047680D0020681000205C1A0020AA
:10284C00901900206804002098190020680D0020C1
:10285C009C19002094190020A0190020600400206D
:10286C00012110F01F029140DFF8FC2440B2430913
:10287C0042F823107047012110F01F029140DFF83D
:10288C00EC2440B2430942F8231070472DE9F0477D
:10289C0004002078012806D046D3032823D012D375
:1028AC00042830D040E0DFF8C804050050200600B2
:1028BC00DFF8C0040700002080465FF0FF3081463F
:1028CC001A20824632E0DFF8B004050050200600E2
:1028DC00DFF8A0040700082080467FF0080081463E
:1028EC001A20824622E0DFF89404050060200600DE
:1028FC00DFF88C040700002080465FF0FF30814633
:10290C003020824612E0DFF87C04050050200600DF
:10291C00DFF8740407005FF4002080465FF0FF309E
:10292C0081460020824601E0002049E02879C0075A
:10293C0001D5002044E0DFF854040068012195F92A
:10294C00222091400843DFF84414086060686861F5
:10295C0060882884A068A861E068E861686850F025
:10296C000100686028680660286847602868C0F81D
:10297C0008802868C0F80C902868C0F820A060680F
:10298C002968C1F800016068401C2968C1F8100171
:10299C0001202968C1F8040101202968C1F814013B
:1029AC0040F201102968C1F8200195F9220040B2CB
:1029BC00FFF761FF95F9220040B2FFF751FF2800A5
:1029CC00BDE8F08770B582B004000D008DF80050A2
:1029DC0000AA012114F10800FFF710FE0600002EDA
:1029EC0006D0DFF8B0030068002801D500F09BF892
:1029FC00300076BDF8B504000D0016003200290039
:102A0C0014F10800FFF7FAFD0700002F06D0DFF8DD
:102A1C0084030068002801D500F085F83800F2BD69
:102A2C000020DFF874130860DFF87003DFF8401340
:102A3C0008600020DFF8381388600020DFF83013BE
:102A4C0048610020DFF8281308840020DFF82013E9
:102A5C0088610020DFF8181348600820DFF8101395
:102A6C0081F82200DFF83803DFF80C13086000202F
:102A7C00DFF8041388600020DFF8FC1248610020A6
:102A8C00DFF8F41208840020DFF8EC1288610020D3
:102A9C00DFF8E41248600D20DFF8DC1281F8220028
:102AAC00DFF80003DFF8D41208600020DFF8CC1246
:102ABC0088600020DFF8C41248610020DFF8BC12E7
:102ACC0008840020DFF8B41288610020DFF8AC1213
:102ADC0048600E20DFF8A41281F82200DFF8C8024B
:102AEC00DFF8A01208600020A64988600020A549E4
:102AFC0048610020A34908840020A2498861002075
:102B0C00A04948600F209F4981F822009848A749A6
:102B1C0008600FF27D109E490860704780B59C4894
:102B2C000068804701BD80B59B48006850F00100EB
:102B3C00994908608E489D49086097480078C007FD
:102B4C000BD59348006880479948006899490860FC
:102B5C0001219848FEF70CFCEFE701BD80B58448D5
:102B6C009549086095489649086096480068401C4D
:102B7C009449086000F010F801BD80B57E488E497C
:102B8C00086091488E49086090480068401C8F4945
:102B9C00086000F001F801BD80B587480068006846
:102BAC000069000738D58448006800684069000750
:102BBC0032D583480068006850F0020080490968EB
:102BCC0008607D4800680068D0F81001401C7A4904
:102BDC0009680968C1F81001774800680068D0F8E6
:102BEC001001754909684969734A1268128C5118A9
:102BFC00884207D17048006840696F4909680968C4
:102C0C00C1F810016C480068C069804701206A490E
:102C1C0009680968C1F81401674800680068006910
:102C2C00C00632D56448006800684069C0062CD5DF
:102C3C0004216148006880680068FFF7C5FD5E48A4
:102C4C0000680830FFF757FD5B480068406830F4B7
:102C5C0000105949096848604FF4007056490968DA
:102C6C000968C1F820011020534909680968C86037
:102C7C0057480078002805D055480078401E544924
:102C8C00087002E05348FEF7F1FB01BD00000000A4
:102C9C0080B5464800688068002836D043480068F4
:102CAC004068800231D40221404800688068006886
:102CBC00FFF78AFD3D480068406850F400103B491E
:102CCC0009684860394800688068083037490968E5
:102CDC000968C1F8080135480068806840683349C4
:102CEC0009680968C1F80C011020304909680968A5
:102CFC00886037480078401C354908704FF4807064
:102D0C002A4909680968C1F820012848006890F828
:102D1C002200082806D00D2808D00E280AD00F282B
:102D2C000CD01DE01448214908601CE013481F49D1
:102D3C00086018E013481D49086014E00C481B4952
:102D4C00086014480068002809D52148007800283C
:102D5C0005D111480068400840000F49086002E0A6
:102D6C0003481249086001BD00E100E080E200E088
:102D7C00AC170020C0084000D0170020F41700202A
:102D8C00CE18450018180020FF18410010040E4002
:102D9C00FC19002088190020041A002000060E409F
:102DAC00000009400040094000800940081A00203A
:102DBC00A0190020001A00200C1A0020F419002081
:102DCC00101A0020141A0020F8190020181A0020DC
:102DDC00601A00207052080010B4DFF80023C0B253
:102DEC000A2303FB0022D279012A0CD1DFF8F0224E
:102DFC00DFF8E832C0B20A2404FB00331B7A12EB72
:102E0C008302110009E0B74AB44BC0B20A2404FB98
:102E1C0000331B7A12EB83021100B34AC0B252F892
:102E2C0020200A600022AD4BC0B20A2404FB003300
:102E3C001A7010BC704710B4A84AC0B20A2303FB26
:102E4C000022D279012A0AD1A64AA44BC0B20A2484
:102E5C0004FB00331B7A12EB8302110009E0A04A39
:102E6C009E4BC0B20A2404FB00331B7A12EB830284
:102E7C0011009D4AC0B252F820200A600022974BE4
:102E8C00C0B20A2404FB00331A7010BC7047974977
:102E9C00924AC0B20A2303FB0022127A11EB820180
:102EAC000A68914BC0B253F820305A400A60704700
:102EBC002DE9F04182B04FF47A644FF4FA75601B3F
:102ECC001421B0FBF1F61427FFB2002F2FD05FF0C6
:102EDC0014081FFA88F8B8F1000F0DD08448006868
:102EEC000090012100A8FEF743FA0028F9D000F069
:102EFC0043F8B8F10108ECE7FFB2142F05D1C82153
:102F0C0000A8FEF735FA0028F9D00020C0B20B2833
:102F1C0009DAFFB2791E714AC0B20A2303FB002200
:102F2C005180401CF2E7A41B75197F1ECCE700F002
:102F3C0023F8C82100A8FEF71BFA0028F9D00020BE
:102F4C00C0B20B2804DA0021644A1170401CF7E768
:102F5C000820FFF741FF0920FFF73EFF0A20FFF78B
:102F6C003BFF6448006850F0010062490860624809
:102F7C00FEF77CFABDE8F38110B50024E4B20B2C0B
:102F8C0080F2AA805548E4B20A2101FB04000078C3
:102F9C00012872D15148E4B20A2101FB0400B0F9B6
:102FAC000200002804D12000C0B2FFF744FF5CE00F
:102FBC004A48E4B20A2101FB0400B0F902001428CB
:102FCC0004D12000C0B2FFF707FF4EE04348E4B243
:102FDC000A2101FB04008088401E4049E4B20A2209
:102FEC0002FB041188803D48E4B20A2101FB040075
:102FFC008088002839D13948E4B20A2101FB040049
:10300C00807901281AD12000C0B2FFF714FF334891
:10301C00E4B20A2101FB0400B0F90200D0F1140063
:10302C002E49E4B20A2202FB0411888000202B49AD
:10303C00E4B20A2202FB0411887116E02000C0B22F
:10304C00FFF7CAFE2548E4B20A2101FB04004088C0
:10305C002249E4B20A2202FB0411888001201F4994
:10306C00E4B20A2202FB0411887101201B49E4B26C
:10307C000A2202FB041108702CE01848E4B20A2161
:10308C0001FB04000078022824D11448E4B20A2180
:10309C0001FB04008088401E1049E4B20A2202FBA6
:1030AC00041188800D48E4B20A2101FB04008088D9
:1030BC0000280FD12000C0B2FFF7E9FE0748E4B2A8
:1030CC000A2101FB040040880449E4B20A2202FBF5
:1030DC0004118880641C51E710BD00000000002022
:1030EC00300C0E40340C0E40B0010020380C0E4059
:1030FC00A01900208C1900203C03002062F30F2241
:10310C0062F31F42401810F0030308D0C91A1FD3F2
:10311C00DB0748BF00F8012D28BF20F8022D130053
:10312C0030B414461546103928BF20E93C00FAD8B3
:10313C00490728BF20E90C0048BF40F8042D89003E
:10314C0028BF20F8022D48BF00F8012D30BC704775
:10315C00C91818BF00F8012DCB0728BF00F8012DA6
:10316C0070470A0D0749086808B1002070470648E7
:10317C00C008C00008600549C908C900091A0160E7
:10318C00704700BF481A00200700082000400820A4
:10319C00012110F01F029140DFF8902740B2430943
:1031AC0042F823107047012110F01F029140DFF804
:1031BC00802740B2430942F823107047F8B5040049
:1031CC000D0016008DF80050DFF868070078102805
:1031DC0001D100205CE000AA0121DFF85C07006847
:1031EC00001DFFF70BFA0700002F50D00020DFF86E
:1031FC004C17DFF84C271278120150540120DFF8DD
:10320C003C17DFF83C27127811EB02114860DFF80D
:10321C002C07DFF82C17097810EB01100472DFF87B
:10322C001C07DFF81C17097810EB011086720020C0
:10323C00DFF80817DFF80827127811EB0211487233
:10324C000020DFF8F816DFF8F826127811EB0211DF
:10325C00C860DFF8EC060078401CDFF8E416087054
:10326C00DFF8D0060078401CDFF8C8160870DFF8CD
:10327C00D0060078102803D10020DFF8C41608709F
:10328C00DFF8C0060068002801D500F041F93800CD
:10329C00F2BD2DE9F04104000D0016001F00DFF80F
:1032AC0094060078102801D100205DE0320029003E
:1032BC00DFF884060068001DFFF7A0F98046B8F11E
:1032CC00000F50D00020DFF87416DFF87426127847
:1032DC00120150540120DFF86416DFF864261278CE
:1032EC0011EB02114860DFF85406DFF85416097828
:1032FC0010EB01100472DFF84406DFF8441609786D
:10330C0010EB011087720020DFF83016DFF8302642
:10331C00127811EB021148720020DFF82016DFF84A
:10332C002026127811EB0211C860DFF81406007821
:10333C00401CDFF80C160870DFF8F8050078401C0C
:10334C00DFF8F0150870DFF8F8050078102803D1C5
:10335C000020DFF8EC150870DFF8E805006800289D
:10336C0001D500F0D5F84046BDE8F08110B5122427
:10337C00DFF8D40500680121A1400843DFF8C81527
:10338C0008600020DFF8C4150860DFF8C405DFF81A
:10339C00A81508600020DFF8A81508700020DFF8D9
:1033AC00B41508700020DFF88C150870DFF8A8053C
:1033BC00DFF89C1508600020DFF8941548600020A9
:1033CC00DFF88C1588600020DFF88415C860DFF802
:1033DC00680500680068006850F08000DFF8581538
:1033EC00096809680860DFF874050068DFF8701573
:1033FC0008600521DFF86805FDF7BAFF0028F8D052
:10340C00DFF86005DFF830150968096808612420C9
:10341C00DFF824150968096808600020DFF8181522
:10342C000968096848604FF4A170DFF80C15096849
:10343C00096848624FF63560DFF8FC1409680968C2
:10344C008862200040B2FFF7AEFE200040B2FFF7CA
:10345C009FFE0020DFF8101508600020DFF80C1527
:10346C0008600FF2A510DFF80815086010BD80B5D4
:10347C00DFF8FC040068804701BD0120C0B20028C1
:10348C001DD0DFF8E4140968002918D0DFF8DC142B
:10349C0009680978DFF8A024126812685163DFF814
:1034AC00CC140968491CDFF8C4241160DFF8B81487
:1034BC000968491EDFF8B0241160401EDEE7DFF812
:1034CC00A814096800291CD10421DFF86C241268A7
:1034DC0012689162DFF86414DFF87824127811EB2B
:1034EC000211897A002912D1DFF84C140968096895
:1034FC00096851F00201DFF840241268126811606B
:10350C0005E00421DFF8302412681268516270471C
:10351C0080B5DFF83804006850F00100DFF82C1497
:10352C000860DFF838040068DFF834140860DFF84E
:10353C001C040078C00709D5DFF834040068804704
:10354C000121DFF81C04FDF713FFF0E701BD10B5F6
:10355C00DFF8200400680400DFF81C040068044055
:10356C00E00508D5DFF8E403006850F08070DFF860
:10357C00DC13086046E0A00731D5DFF8BC03006817
:10358C00007B00072BD5DFF8B00300680068006BE8
:10359C00DFF8A413096889680870DFF89C030068D9
:1035AC008068401CDFF8901309688860DFF8B80366
:1035BC000068401EDFF8B0130860DFF8AC03006849
:1035CC0001281FD1DFF8700300680068006850F014
:1035DC000200DFF8641309680968086012E06007EC
:1035EC0008D5DFF854030068007B800702D5FFF78D
:1035FC0044FF07E0DFF85403006850F00070DFF878
:10360C004C13086010BD000080B5DFF8340300785F
:10361C00DFF840130978884200F096800020DFF82C
:10362C0018130968096848602420DFF80C1309682E
:10363C0009680860DFF80403DFF81813097809013A
:10364C00085C002832D1BC48006800684068BB495F
:10365C00DFF80023127811EB0211097A50EA0140CD
:10366C00B549096809684860B34800684068406813
:10367C00BD490860B048006840680830BB49086024
:10368C00FFF7FBFE0221AC48006840680068FFF7BA
:10369C009BF8A9480068C06850F00600A649096864
:1036AC00C8600FF2A900B249086044E0A348A949D8
:1036BC0009780901085C01283DD19F480068006821
:1036CC0040689D490968096848609C48A149097887
:1036DC0010EB01104068A449086098489D4909788E
:1036EC0010EB0110C0689449096888609E48006816
:1036FC0001280AD1904800680068006850F0030067
:10370C008D4909680968086009E08B480068006801
:10371C00006850F00100884909680968086086480B
:10372C000068C06850F0080083490968C8600FF24F
:10373C00F1008F4908608548006810F07F4F03D076
:10374C000FF255108A49086001BD000080B57B4816
:10375C008049097810EB0110807A002818D1824832
:10376C000068002826D1744800680068006A400789
:10377C0020D5714800680068006AC0071AD56E48E9
:10378C000068C06830F006006B490968C86011E039
:10379C007548006800280DD1674800680068006A09
:1037AC00400707D564480068C06830F002006249E1
:1037BC000968C86060480068007B800725D4042134
:1037CC005D48006840680068FEF7FEFF5A480068D4
:1037DC00001DFEF790FF5D480068400840005B4903
:1037EC0008606648624908605A480078401C59498C
:1037FC00087050480078401E4E49087055480078B3
:10380C00102802D10020534908705048006810F06D
:10381C007F4F03D00FF281005549086001BD0000B5
:10382C005148006800282DD1434800680068006AA0
:10383C00800727D5404800680068006AC00721D57A
:10384C003D480068C06830F008003B490968C86012
:10385C003E480068400840003C49086047484449DD
:10386C0008603C480078401C3A49087031480078A0
:10387C00401E3049087037480078102802D10020CB
:10388C00344908703148006810F07F4F03D00FF2B4
:10389C00090037490860704780B52C480068C001A2
:1038AC003AD526482649097810EB0110407A401C7D
:1038BC002249234A127811EB021148721F48204901
:1038CC00097810EB0110407A032821D121480078A7
:1038DC00401C2049087017480078401E1549087094
:1038EC001C480078102802D100201A490870124890
:1038FC000068007B80070BD506210F4800684068E4
:10390C000068FEF761FF0C480068001DFEF7F3FE2F
:10391C00002009490968C8600C4800680002000AC8
:10392C000A49086015481249086001BD00E100E031
:10393C0080E200E05F1A0020BC1900208C130020EC
:10394C005D1A00208819002010040E40B8190020C0
:10395C00B41800205E1A002000400840A019002076
:10396C00B41900201D1D0200C0190020C41900202C
:10397C00B01900202C4008402040084015360800A3
:10398C0010B50400207800F013F9002805D0DFF8FA
:10399C001004FDF76BFD0020E6E0DFF80804FDF7EE
:1039AC006AF8DFF800140871A078DFF8FC1388704F
:1039BC000020C0B2082815DAC0B20119C978DFF8A6
:1039CC00E823C0B28218D170DFF8E01322781423F8
:1039DC0003FB0211C0B24118C0B20219D278CA70EE
:1039EC00401CE6E7DFF8C003FDF745F8DFF8B81335
:1039FC00C8722078DFF8B81388706078DFF8B013DD
:103A0C00C8706078DFF8A4132278142303FB02112A
:103A1C004870A078DFF898130871A078DFF88C1341
:103A2C002278142303FB02118870DFF88403FDF75E
:103A3C0022F8DFF87C1348712078DFF8781388704F
:103A4C00E07ADFF87013C870E07ADFF86013227840
:103A5C00142303FB0211C872207BDFF85813087182
:103A6C00207BDFF848132278142303FB0211087320
:103A7C00607BDFF840134871607BDFF830132278ED
:103A8C00142303FB02114873A07BDFF82813887101
:103A9C00A07BDFF818132278142303FB0211887320
:103AAC00DFF81003FCF7E7FFDFF80813C871207884
:103ABC00DFF804138870E07BDFF8FC12C870E07B41
:103ACC00DFF8E8122278142303FB0211C873207C60
:103ADC00DFF8E4120871207CDFF8D012227814236E
:103AEC0003FB02110874DFF8D002FCF7C4FFDFF807
:103AFC00C81248712078DFF8C4128870607CDFF837
:103B0C00BC12C870607CDFF8A4122278142303FB6B
:103B1C0002114874DFF8A402FCF7ADFFDFF89C1229
:103B2C0008712078DFF898128870A07CDFF890126A
:103B3C00C870A07CDFF874122278142303FB0211E6
:103B4C008874DFF87C02FCF796FFDFF874120871BA
:103B5C00DFF870020068DFF8701208600FF2711065
:103B6C00DFF868120860012010BD10B582B00400A7
:103B7C0000A897490A680260E4B2002C01D08DF8C5
:103B8C00024000A8FCF777FF8DF803008748E4B2E9
:103B9C00142101FB0400C07C50F002008349E4B204
:103BAC00142202FB0411C87400A8FCF776FF16BDA2
:103BBC0001007E48C9B2142202FB0100C07CC00780
:103BCC0015D57A48C9B2142202FB0100C07C00074B
:103BDC0001D504200CE07548C9B2142202FB010087
:103BEC00C07C400701D5032002E0012000E000204A
:103BFC00704738B504000D00764884700020C0B2C0
:103C0C00082807DAC0B2415D724AC0B28218D1707E
:103C1C00401CF4E76F48FCF72EFF6E49C8726D48E4
:103C2C00FCF73BFF32BD10B56B48006800283BD059
:103C3C00694800680068694908606748006800794D
:103C4C00674908706448006800F206000400002010
:103C5C00C0B2082806DAC0B2015D624AC0B2815413
:103C6C00401CF5E75C480068807B5F4908705A4847
:103C7C000068C07B5C49487057480068008A5A4904
:103C8C00488055480068807C574908715248006844
:103C9C00C07C5549487150480068007D5249887174
:103CAC00FCF75EFF012000E0002010BD80B54F48FE
:103CBC00FDF7DCFB0FF215004449086001BD80B52F
:103CCC0042480068804701BD0000000070470000BA
:103CDC0080B547480078002811D1464846490978F4
:103CEC0050F821004078454908704248424909780B
:103CFC0050F82100FCF7D1FE01203D4908703F48E7
:103D0C0000783F494978884239D13D48807800286D
:103D1C0029D139480078401C37490870364800785A
:103D2C00072829D136480078364908733548FDF7FD
:103D3C009DFB3548FDF79AFB1C4831490978142244
:103D4C0002FB0100C07C50F0010018492C4A12788B
:103D5C00142303FB0211C8740020274908702B4858
:103D6C001A49086008E02748FDF780FB2848FDF752
:103D7C007DFB26481549086000201D49087042F259
:103D8C0010711148FDF7F4FA002808D01D48FDF712
:103D9C006DFB1F48FDF76AFB1C480C49086001BD10
:103DAC00C44F080020040020D00300208C140020F5
:103DBC00F803002000040020080400201004002058
:103DCC0018040020A01900204C19002048190020CC
:103DDC0074540800DC030020F4180020441900205F
:103DEC00551A0020D0180020D818002010540800B4
:103DFC00581A0020A8020020561A0020571A00203A
:103E0C00F0180020C4020020E8030020D93C080070
:103E1C00F0030020DFF86C02DFF86C12086004205D
:103E2C00DFF8681208604FF480709949086099486F
:103E3C009949086099480068C007FBD59648006806
:103E4C0097490843944908609648974908609348F5
:103E5C0000688007FBD54FF400709449086042F26B
:103E6C001100934908608D4800680007FBD542F2A9
:103E7C0012008F490860894800680007FBD58D48FF
:103E8C00006850F444108B49086084480068400670
:103E9C00FBD57047002088490860002087490860DE
:103EAC0041F26F7086490860002086490860032043
:103EBC0085490860704780B57F4800688349096868
:103ECC00401A012817D082480068401C80490860BD
:103EDC008048006850F020007E4908607E480078D9
:103EEC00800708D57D48FDF7C1FA79480068FDF7D1
:103EFC00DDFAFDF7CDFA704800687449086078481F
:103F0C00006830F48010764908607648006830F01C
:103F1C000400744908606F48006850F080406D4997
:103F2C0008606C480068400001D530BFF9E701BD5E
:103F3C006D486E4908606E486E490860704780B5E0
:103F4C006D486E4908606E486E4908606E486F494E
:103F5C0008606F486F49086000206F4908600020B6
:103F6C006E4908606E486F4908605FF040506E49BA
:103F7C0008606E486E4908606E486F4908607FF0B3
:103F8C0001006E49086001206D4908605FF0F64041
:103F9C006C49086000206C49086000206B4908607F
:103FAC0000206B4908606B486B49086000206B4926
:103FBC0008606B486B4908606B486C4908606C483A
:103FCC006C4908606C486D49086000206C490860B9
:103FDC0000206C4908606C486C49086000206C49F2
:103FEC00086000206B4908607FF07E406A490860D9
:103FFC006A486B4908604FF4E0706A4908606A4887
:10400C006A49086000206A49086000206949086014
:10401C0000206949086069486949086000206949BD
:10402C00086000F001F801BD5FF0011066490860FE
:10403C0000206649086003206549086041F27070F1
:10404C006449086041F270706349086042F6E060B0
:10405C006249086042F6E0606149086003206149EA
:10406C00086040F2DC506049086040F2DC505F4967
:10407C00086040F6B8305E49086040F6B8305D49DB
:10408C000860704773EDFC2710040E4040040E408E
:10409C0000040E4019F0370020040E4068040E4056
:1040AC0000003701013F072028040E4000080E4095
:1040BC0030040E401C040E40A0190020A41900204E
:1040CC0014E000E018E000E010E000E0AC19002083
:1040DC00A8190020881900206419002088020020EB
:1040EC0070040E4010ED00E00005FF1F54120E404E
:1040FC00010000A550120E4007000384000C0E4076
:10410C00F8FFFC7B040C0E40F9D755BF100C0E4089
:10411C000628AA40140C0E40200C0E40240C0E4015
:10412C0000000188300C0E40340C0E4000060004D8
:10413C00500C0E40FFF9FFFB540C0E40600C0E406F
:10414C00640C0E40700C0E40800C0E40840C0E4023
:10415C008C0C0E40000001B4A00C0E40A40C0E40C0
:10416C0057FFBF01000E0E4058004000040E0E40D9
:10417C00E0FFBF01100E0E401F004000140E0E4059
:10418C00200E0E40240E0E4000FEBF01300E0E40DD
:10419C00340E0E40500E0E40540E0E405FFEFF01CA
:1041AC00600E0E40640E0E4018004000700E0E4063
:1041BC00800E0E40840E0E408C0E0E40E0FF1F0051
:1041CC00A00E0E40A40E0E4000C0084020C00840B7
:1041DC0000C208400CC2084010C2084004C208408B
:1041EC0008C2084020C208402CC2084030C2084017
:1041FC0024C2084028C20840012110F01F0291403F
:10420C00864A40B2430942F823107047012110F04E
:10421C001F029140824A40B2430942F82310704772
:10422C0038B5002400250020C0B204280DDA002186
:10423C007F4AC0B2815400217A4AC0B28154002115
:10424C007C4AC0B28154401CEEE70020C0B2042866
:10425C001ADA7949C0B211EB40014978002905D12D
:10426C007649C0B251F820100C430BE07249C0B231
:10427C0011EB40014978802904D17049C0B251F842
:10428C0020100D43401CE1E76D4804606D4805604B
:10429C006D48006804006D48006805000A20FFF7AF
:1042AC00B5FF0B20FFF7B2FF0A20FFF7A5FF0B208D
:1042BC00FFF7A2FF0FF249006549086065480068E6
:1042CC0050F00200634908606348FDF7CFF831BD38
:1042DC0080B55F480068804701BD0200D2B2042A55
:1042EC000CDA5548D2B210EB42004078C9B2884281
:1042FC0004D15248D2B250F8220000E0002070479E
:10430C000020C0B204280ADA4949C0B2415C002935
:10431C0003D00FF20D014E4A1160401CF1E77047BB
:10432C0070B54E484A4908600026F6B2042E74DA7D
:10433C004B484149F6B211EB4601497810EB81002C
:10434C0004003F483C49F6B211EB4601497810EBAA
:10435C00810005003648F6B2305C00285BD041483D
:10436C003B49086019214048F6B210EB8600FCF777
:10437C00FFFF00284FD03048F6B210F81600002886
:10438C0011D12068C0432D49F6B251F826100842CD
:10439C0004D001202749F6B2705414E000202549BE
:1043AC00F6B270540FE020682449F6B251F826108A
:1043BC00084204D001201F49F6B2705403E00020DB
:1043CC001C49F6B270541B48F6B2305C1549F6B273
:1043DC00715C884214D01748F6B2305C1149F6B2C1
:1043EC0070541048F6B2305C012809D101200E49F6
:1043FC00F6B270541D4800680C49F6B241F826001C
:10440C0000200B49F6B2705428680C49F6B251F8EA
:10441C00261008432860761C87E770BD00E100E099
:10442C0080E200E05819002060190020A418002038
:10443C00501900205C190020300400202054080082
:10444C00400C0E40400E0E404C0C0E404C0E0E40DC
:10445C00541900208C190020980300200D430800EB
:10446C003C0C0E402D43080094180020A01900208D
:10447C00012110F01F029140604A40B2430942F8FA
:10448C0023107047012110F01F0291405C4A40B28A
:10449C00430942F82310704710B588B000A8594959
:1044AC002022FCF7A7FF0020C0B2082809DA00A9D7
:1044BC00C0B251F82010544AC0B242F82010401C2F
:1044CC00F2E70024E4B21D2C09DA200040B2FFF719
:1044DC00CFFF200040B2FFF7D5FF641CF2E708B015
:1044EC0010BD80B50020FEF7A6FC0320FEF7A3FC50
:1044FC000120FEF7A0FC0620FEF79DFC0220FEF733
:10450C009AFC0420FEF797FC0520FEF794FC07208C
:10451C00FEF762FCFEE73D480068401C3B49086022
:10452C003B48006830F080403949086039480088C1
:10453C00401E3849088037480088002808D14FF4BD
:10454C007A703449088034480068401C324908604D
:10455C007047F8B531480068040014F400300500C9
:10456C00002D1CD00027FFB2042F18DA00213800D0
:10457C00C0B2FFF7B2FE060035420ED028480068E4
:10458C0030432749086001202649FFB278541F4860
:10459C0000682549FFB241F827007F1CE3E70A2099
:1045AC00FFF770FFF1BDF8B520480068040014F067
:1045BC0007000500002D1CD00027FFB2042F18DACD
:1045CC0080213800C0B2FFF788FE060035420ED0BD
:1045DC001748006830431649086001201149FFB2A2
:1045EC0078540A4800681049FFB241F827007F1C34
:1045FC00E3E70B20FFF746FFF1BD000080E100E090
:10460C0080E200E05052080000E400E0A019002015
:10461C008819002064040020A41900204C0C0E40C2
:10462C00440C0E4050190020941800204C0E0E40E3
:10463C00440E0E40816807E00268116853688918BF
:10464C005B18C36008320260C2689142F4D04A1C05
:10465C0082600878704738B504460D46A068E1685A
:10466C00884212D120686168884208BF00F0C3F804
:10467C002068227C016802B14944A160426852184A
:10468C00E260083020609142ECD0A068401CA06031
:10469C0000F8015D31BD2DE9F0418AB000F108014F
:1046AC0005910268520801EBC201069100210791A5
:1046BC0008910168490800EBC101083100910179AA
:1046CC0001F001018DF8101040680099400801EBD1
:1046DC00C000019000200290039084E005A8FFF731
:1046EC00A9FF044614F0030603D105A8FFF7A2FFA7
:1046FC00C61C25090F2D1BD105A8FFF79BFF00F148
:10470C000F0515E005980168081805990790496888
:10471C000818089005980830059007980899884261
:10472C00F0D0401C079010F8011D00A8FFF793FF74
:10473C00761EF2D1002D51D005A8FFF77BFF06465F
:10474C00A00800F00300032804BF05A8FFF772FFC0
:10475C00DDF800800299039F06EB002008E0A8F129
:10476C000808801A58F8081C58F8042C57183946B1
:10477C0058F8082C8A1A8242F1D30C1AAE1C2DD090
:10478C00BC4206D158F8044B58F8040B0719BC422C
:10479C00F8D00298039914F8015B884217D100985D
:1047AC000199884208BF00F026F8009800689DF82F
:1047BC001010029009B1484402900099029849687F
:1047CC00009A09180832039100928842E7D00298A7
:1047DC00401C0290761E00F8015DD1D1029803991D
:1047EC0088427FF47BAF0198009981427FF476AFC9
:1047FC000AB0BDE8F081012000F000B880B5C046D9
:10480C00C046024A11001820ABBEFBE7260002008E
:10481C00E0B500A85C490B22FCF7DCFD012000F0A0
:10482C00C7F8002042F21071884201D2401CF9E70F
:10483C0000A9002000F0D1F8002054490870102085
:10484C005249487000205149C87320204F490874C0
:10485C0064204E49C87200204C49087301204B4912
:10486C004873012049498873322048494874042010
:10487C00464988740020454988700020C0B2082839
:10488C0006DA0021414AC0B28218D170401CF5E70B
:10489C003E48FFF775F8002808D03D4800683D49B0
:1048AC0008600FF225003C49086006E03B48FCF725
:1048BC00DDFD0FF2F9003849086007BD80B53648B8
:1048CC000068804701BD000080B50020FFF770F93B
:1048DC00012806D10020FFF748F90FF225002E49D8
:1048EC00086040F6B8312B48FCF742FD002806D092
:1048FC002A48FCF7BBFD0FF2B5002749086001BD43
:10490C0080B5FFF790F900283DD0254800780128A4
:10491C0039D023480078022835D12248C07806289F
:10492C0016D12148C078401C1F49C8701E48C07859
:10493C0000280DD11C488078401C1B4988701A48EF
:10494C008078002804D118484078401C16494870DB
:10495C001548C079401C1449C8711348C079002807
:10496C000DD111488079401C0F4988710E4880790F
:10497C00002804D10C484079401C0B4948710A4965
:10498C000020FFF736F901BD5454080080180020B0
:10499C00A01900203C1A0020381A00200402002024
:1049AC00551A0020D0180020400400207047704792
:1049BC0010B50400464844700023454A02213C20AF
:1049CC00FEF767FC43480068002805D500204249E3
:1049DC00884201D2401CFAE710BD70B504000D00EE
:1049EC0054F08000C0B2FFF7E3FF012006002878E6
:1049FC00002806D028783949F6B270546D1C761C04
:104A0C00F5E70023354AF6B231003C20FEF741FCB5
:104A1C0070BD00B589B000A831490CC90CC008396B
:104A2C00083802A82F491622FCF7D4FC0FF2CD004F
:104A3C002D4908604FF400702C4908602C48006820
:104A4C002C49086028212B48FCF792FC0028F9D04F
:104A5C00012200213C20FEF7B1FB012300AA062114
:104A6C003C20FEF716FC2248006822490860C82149
:104A7C002048FCF77DFC0028F9D000220C213C20BA
:104A8C00FEF79CFB0820FEF7A7F90920FEF7A4F916
:104A9C000A20FEF7A1F9012240213C20FEF78EFBF3
:104AAC00002302AA14213C20FEF7F3FB10480068F7
:104ABC00104908601048006850F008000E49086062
:104ACC0009B000BD80B508480068804701BD0000F2
:104ADC004E1A002088190020A086010084010020B5
:104AEC006C5408005453080080190020300E0E40FE
:104AFC00A0190020841900208C1900207047000098
:104B0C00012110F01F0291403C4A40B2430942F887
:104B1C0023107047012110F01F029140384A40B217
:104B2C00430942F82310704700B587B000A83849F4
:104B3C001922FCF74FFC374837490860FF203749EA
:104B4C00086040F201103649086036483649086062
:104B5C003648374908600020C0B2082807D20FF247
:104B6C003D01294AC0B242F82010401CF4E7012054
:104B7C00264908701A20FFF7CDFF1A20FFF7C0FF57
:104B8C0000A8FCF773FC0FF2B9002A49086007B0C3
:104B9C0000BD80B527480068804701BD704738B517
:104BAC000025EDB2032D21D2234800681549EDB242
:104BBC00695CC840C00717D520481249EDB2695C42
:104BCC0050F821000400200080B20F490D4AEDB2CC
:104BDC00AA5C51F82210884701200A49EDB26956A7
:104BEC0088400E49086001E06D1CDAE70120074996
:104BFC0008705FF080600249086031BD00E100E0A0
:104C0C0080E200E05804002060180020501A0020B8
:104C1C00905208000017040F04800A4014800A40C8
:104C2C0064800A400100040068800A40FFFF0F0006
:104C3C0028800A40E81800201C800A4030800A4076
:104C4C0070470000012110F01F0291402B4A40B226
:104C5C00430942F823107047012110F01F029140C4
:104C6C00274A40B2430942F82310704700B587B079
:104C7C0000A825491522FCF7ADFB244824490860FF
:104C8C00244825490860252024490860102024491F
:104C9C000860EF202349086002202349086023485C
:104CAC00184908601720FFF7D7FF1720FFF7CAFF36
:104CBC000FF28D001E49086000A8FCF7D7FB1D48B9
:104CCC00006850F020001B49086007B000BD80B59B
:104CDC0017480068804701BD80B517480068C006BA
:104CEC0007D516480068401C144908600548006840
:104CFC0080475FF400000249086001BD00E100E05C
:104D0C0080E200E0301A00208453080000081000F4
:104D1C000401084003C40C00440008405C00084037
:104D2C00640008406800084040000840BB49080087
:104D3C002C1A00208C19002060000840341A002026
:104D4C007047000080B53348006850F0004031498E
:104D5C000860FFF7EDF8FFF7F2F8FFF75BF8FFF7E5
:104D6C009BFBFFF797F8FDF7F1FCFDF759FEFCF7FD
:104D7C002FFCFFF77BFFFCF7F7FFFEF7F7FAFFF7C7
:104D8C00D3FEFFF746FEFEF793F8FFF749FAFBF761
:104D9C000BFCFEF78BFF00F047F8FFF739FD00F036
:104DAC00A3F800F0AFF8FCF7D9FB1A4800684000F4
:104DBC00400818490860184818490860FEF7DCF8E4
:104DCC00FFF786FAFDF7AAFEFFF781FFFDF74BF818
:104DDC00FEF74DFBFFF7DDFEFDF7F1FCFCF756FC93
:104DEC00FFF770FEFBF7F5FCFEF769FF00F062F8C9
:104DFC00FFF764FD00F07DF800F089F85FF00040EB
:104E0C0007490860FFF757F85FF000400549086054
:104E1C00D1E700BF88190020010000A550120E40F8
:104E2C00300C0E40340C0E4000B587B000A826495B
:104E3C001722FCF7CFFA002080B2B0F5097F05D21B
:104E4C000021204A80B28154401CF5E71D481F49BF
:104E5C0008601C481E49086003201E4908701E4843
:104E6C001C4948604FF480701A49886015481949EC
:104E7C00886116481749C8614FF4097015490884B0
:104E8C000020144908730020124948731148FCF79C
:104E9C00AFFE124908600FF229001149086000A802
:104EAC00FCF7E4FA0F48006850F080000D490860E8
:104EBC0007B000BD80B50A480068804701BD0000FE
:104ECC0070470000681000206C530800241A002062
:104EDC00281A00203C180020000C0E40201A00203C
:104EEC001C1A00208C1900200FF2150003490860D1
:104EFC00704780B501480068804701BD401A00200A
:104F0C00704700000FF2150003490860704780B528
:104F1C0001480068804701BD441A0020704700001A
:104F2C004C454400000000000000425554544F4EC4
:104F3C0000000000444542554700000000004C436F
:104F4C004400000000000000414E5400000000002E
:104F5C00000054494D45520000000000534400002D
:104F6C000000000000000000000000000000000035
:104F7C000A0D496E697469616C697A6174696F6E46
:104F8C0020636F6D706C6574652E2054797065208C
:104F9C00656E2B63303020666F72206465627567B6
:104FAC00206D656E752E20204661696C65642074D9
:104FBC0061736B733A0A0D00416E744173736967C8
:104FCC006E4368616E6E656C206572726F723A200A
:104FDC006368616E6E656C206973206E6F742075EA
:104FEC006E636F6E666967757265640A0D0000000A
:104FFC000A0D4E6F20737061636520696E20416EDF
:10500C007451756575654170706C69636174696F15
:10501C006E4D6573736167650A0D00000A0D4E6F66
:10502C0020737061636520696E20416E74517565E3
:10503C0075654F7574676F696E674D6573736167DE
:10504C00650A0D0010B5074979441831064C7C44AB
:10505C00163404E00A68081D511888470146A1421D
:10506C00F8D110BD94010000BC0100000A0D556E72
:10507C00657870656374656420414E54206D65736A
:10508C00736167652073697A650A0A0D0000000078
:10509C00416E7454783A206D736720616C7265614F
:1050AC00647920696E2070726F67726573730A0D74
:1050BC000000000053686F77206465627567206399
:1050CC006F6D6D616E64206C6973742020202020DC
:1050DC002020202000000000546F67676C65204C76
:1050EC00454420746573742020202020202020202B
:1050FC00202020202020202000000000546F676713
:10510C006C652073797374656D2074696D696E6755
:10511C00207761726E696E672020202000000000ED
:10512C0044756D6D793320202020202020202020F4
:10513C002020202020202020202020202020202063
:10514C000000000044756D6D793420202020202053
:10515C002020202020202020202020202020202043
:10516C00202020200000000044756D6D7935202032
:10517C002020202020202020202020202020202023
:10518C0020202020202020200000000044756D6D80
:10519C007936202020202020202020202020202094
:1051AC002020202020202020202020200000000073
:1051BC0044756D6D79372020202020202020202060
:1051CC0020202020202020202020202020202020D3
:1051DC00000000000A0D53797374656D2074696DBD
:1051EC00652076696F6C6174696F6E207265706F83
:1051FC007274696E6720000053C2FFFFFC1500003B
:10520C0068040020000000008FF4FFFF0200000083
:10521C000200000058020000B9020000000000204B
:10522C00660400003A20756E657870656374656479
:10523C00206368616E6E656C206576656E740A0D10
:10524C0000000000F000F0F000F0F0F0F0F0505032
:10525C00503030F0F0F020F020F0004040F0F0F052
:10526C00F01000000A0D5541525420636F756E7496
:10527C006572206F7574206F662073796E630A0DEA
:10528C00000000004144433132207461736B20698B
:10529C006E697469616C697A65640A0D00000000BE
:1052AC000D0A414E54206578706563746564206DF9
:1052BC007367206661696C0A0D0000000A0A0D41D3
:1052CC007661696C61626C6520636F6D6D616E6493
:1052DC00733A0A0D0000000000F00CF8002801D011
:1052EC00FFF7B0FE0020C046C046FFF72BFD00F0D4
:1052FC000BF800000249034801600120704700BF11
:10530C000000080008ED00E000F000B80746384641
:10531C00FFF774FAFBE70000416E7452783A206D87
:10532C00657373616765206661696C65640A0D005D
:10533C00416E7454783A2053454E2074696D656FF4
:10534C0075740A0D0000000052415A4F522053410F
:10535C004D33553220415343494920202000000051
:10536C00536443617264207461736B20646973616C
:10537C00626C65640A0D000054696D6572312069B8
:10538C006E697469616C697A65640A0D00000000CD
:10539C00416E7452783A2074696D656F75740A0D9C
:1053AC0000000000416E7454783A204E6F20746FE8
:1053BC006B656E0A0D000000416E7454783A204EF5
:1053CC006F2053594E430A0D000000004368616E74
:1053DC006E656C20636C6F7365640A0D00000000D1
:1053EC004E6F206661696C6564207461736B732EFB
:1053FC0000000000414E542076657273696F6E3A5E
:10540C0020000000414E54204150492072656164D7
:10541C00790A0D00000002000100000002000000EB
:10542C00040000005363616E6E696E67200000001B
:10543C000A0D44756D6D79210A0A0D000A0D4C6533
:10544C006420546573742000414E54204D61737474
:10545C0065720000C046C046C046C046FFF73CFF20
:10546C00383914725E6D0000014B00001001010010
:10547C001402F00253010180000A101100004C6567
:10548C006E677468206D69736D617463680A0D14BE
:10549C00300B436F6D6D616E64206572726F7212AA
:1054AC0010090000556E6578706563746517B0045B
:1054BC0076656E740A0D1410376D657373616765CC
:1054CC000A0D0A0A0D2A2A2A2052415A4F522053F9
:1054DC00414D335532204153434949204C434420DC
:1054EC00444556454C4F504D454E5420424F415229
:1054FC0044202D200B0A0D4465627567207265618E
:10550C0064795810230A0D232323206E524635311B
:10551C003432322050726F6772616D6D696E672024
:10552C004D6F64653A206E6F204142100C66756EAB
:10553C006374696F6E616C69747920344223AD10A9
:10554C0007C0500800CD160800E408100B8517089A
:10555C000008510800A11808002C08126B105250BA
:10556C000852740852980852BC08F31A40000112F1
:10557C002004313112040412010412080424010223
:10558C0000005D4300101742080B21B474066368D9
:10559C00616E6E656C203310032030787878FC34A3
:1055AC000973706F6E7365206464200043A12D2411
:1055BC000A7365747570206661696C65643111E7F6
:1055CC00410D20082E20486F737420494F732424FA
:1055DC000820746F2048695A2E0D0A4470065472C4
:1055EC00616E736D697469340474696D656F75BA35
:1055FC00240200000D0AA765EA1404746F6F206C76
:10560C006F60111515C343000084200220316D73A7
:10561C0037257A240376696F6C616E223AF2100892
:10562C0000D003002020040020F80811E413200807
:10563C0004121004121804C1E8E40661737369675C
:10564C006E20000063756E1AC1181401636C6F082C
:10565C0021641403496E697469DD227A8011253046
:10566C00012E2E2E184B0A0A3148027461736BA559
:10567C00419478014C4544148A734F501000535395
:10568C0050205065726970686572616C7320521A93
:10569C001001496E765E23642020240561747465C4
:1056AC006D70743BD19010016F7065A4400442750D
:1056BC0074746F6E73615A620A4146634725983958
:1056CC009844036C6167733A687001094600018362
:1056DC00094F0C434F4B2020024641494C0A4303CF
:1056EC0042184305510843034308530245085247E7
:1056FC000830016E00C00850014D003E4B22800264
:10570C002002656E2B630D125B0422FF60324ECBC0
:10571C003002004F46460910090102030008200818
:05572C0000E803000489
:04000005000854613A
:00000001FF
